:1000000090C00000A9C00000A7C00000A5C000006B
:10001000A3C00000A1C000009FC000009DC0000060
:100020009BC0000099C0000097C0000061C40000A0
:1000300093C0000091C000008FC000008DC0000080
:100040008BC0000089C0000087C0000085C0000090
:1000500083C0000081C000007FC00000ECC400002D
:10006000D7C4000079C0000077C0000075C0000050
:1000700073C0000009023E00020100C03209040002
:1000800000010202010005240010010424020605FB
:1000900024060001070582030800FF09040100028D
:1000A0000A00000007050402200001070583024042
:1000B000000112011001020000084123100000019C
:1000C0000102DC0124034100720064007500690034
:1000D0006E006F0020004D00650067006100200089
:1000E000320035003600300000003203410072005B
:1000F0006400750069006E006F0020002800770022
:10010000770077002E0061007200640075006900BE
:100110006E006F002E0063006300290000000403DE
:10012000090411241FBECFEFD4E0DEBFCDBF12E023
:10013000A2E8B2E0E2E3FCE002C005900D92AE3925
:10014000B107D9F722E0AEE9B2E001C01D92AB3AA7
:10015000B207E1F779D46BC553CF8091A30287FF33
:1001600011C08091E80082FF06C08091E8008B7783
:100170008093E80003C08BB58111F3CF08958BB550
:100180008823E1F38091E80080FFF9CF8091E800B7
:100190008E77EECF982F953020F08093E90081E0A4
:1001A00008959093E900242F762F50E0981731F0AE
:1001B0007091EC002091ED005091F00021FD02C003
:1001C0009F5FE9CF3091EB003E7F3093EB003091A1
:1001D000ED003D7F3093ED003091EB0031603093C6
:1001E000EB007093EC002093ED005093F000209111
:1001F000EE0027FDE5CF80E00895FC012081222359
:1002000011F19481A181B2816381822F8F70853039
:10021000E0F442E0923008F046E0E8E0F0E090E000
:10022000EA17FB0760F09295907F492B6295660F65
:10023000660F607C221F2227221F622BABCF9F5F9D
:10024000EE0FFF1FEDCF81E0089580E00895CF927B
:10025000DF92EF92FF920F931F93CF93DF93CDB76F
:10026000DEB7AA970FB6F894DEBF0FBECDBF8BB531
:10027000882309F455C01091E9001F708091EC00AB
:1002800080FF5DC080E8182B1092E9008091E800A3
:1002900083FF43C0E3EAF2E08BEA92E02091F100B1
:1002A00021938E179F07D1F78091E80083FF12C03A
:1002B000209182028091A7029091A8022817190626
:1002C00049F48091A402813209F449C0D0F580320A
:1002D00009F481C08091E80083FF11C08091A302DE
:1002E0009091A402953009F4D0C108F025C1913055
:1002F00009F48FC108F469C1933009F48AC180916F
:10030000E80083FF0AC08091E800877F8093E800BF
:100310008091EB0080628093EB001F701093E900E6
:10032000AA960FB6F894DEBF0FBECDBFDF91CF9176
:100330001F910F91FF90EF90DF90CF90089580E094
:10034000A2CF823209F4DFC0833221F68091A3026A
:10035000813209F0BFCF8091E800877F38C080915B
:10036000A302813A09F0B6CF8091E800877F80939D
:10037000E8008091E80080FFFCCF80919602909188
:100380009702A0919802B09199028093F100492FB1
:100390005A2F6B2F77274093F100AD0166277727FF
:1003A0004093F1008B2F9927AA27BB278093F10058
:1003B00080919A028093F10080919B028093F100DA
:1003C00080919C028093F1008091E8008E77809369
:1003D000E800C3DE7FCF8091A302813209F07ACF9B
:1003E0008091E800877F8093E8008091E80082FF99
:1003F00078C03091F1002091F1009091F10080914E
:10040000F100309396022093970290939802809384
:1004100099028091F10080939A028091F10080937B
:100420009B028091F10080939C028091E8008B7781
:100430008093E80092DE5B9A1092C9001092C80087
:100440001092CA001EBA1092A00210929F021ABC0B
:10045000C0909602D0909702E0909802F090990296
:10046000C114D104E104F104D1F180919B0200E3B5
:10047000813021F000E0823009F400E280919A029C
:10048000823009F4086080919C02873071F18830D5
:1004900071F1863009F40260C701B601969587951F
:1004A0007795679560587B47814E9F4FA7019601CE
:1004B0009CD32150310920FD04C0211580E138076B
:1004C000C0F03695279580E03093CD002093CC0086
:1004D0000093CA008093C80088E98093C9005B98A4
:1004E000F9CE8BB5811181CFF5CE0460D5CF0660F2
:1004F000D3CF82E0C114A1EEDA06E104F10421F7C2
:1005000020E130E0E0CF8091A302813209F0E2CE19
:100510008091E800877F8093E8001FDE8091A5022C
:100520009091A602809392029093930280FF02C062
:100530005F98D0CE5F9ACECE983009F494C19930AE
:1005400009F49EC1963009F0DACE8058823008F066
:10055000D6CE8091A5029091A6028C3DB3E09B0778
:1005600009F0F9C083E08A838AE289834FB7F8945F
:10057000DE01139620E03EE051E2E32FF0E05093DD
:100580005700E49120FF03C0E295EF703F5FEF70EA
:100590008E2F90E0EA3008F498C0C7968D939D9313
:1005A0002F5F243151F74FBF8091E800877F809300
:1005B000E8008091A9029091AA028A32910508F080
:1005C000C7C040E0FE013196A5C0803899F082385E
:1005D00009F095CE8091A7028F70853008F08FCEFC
:1005E0008093E9008091EB0085FB882780F91092C9
:1005F000E90002C08091A1029091E800977F90935A
:10060000E8008093F1001092F1008091E8008E776D
:1006100025C0282F2D7F09F072CE823009F06FCED1
:100620008091A502811115C08091A7028F702FEFD4
:10063000280F243008F063CE8093E9002091EB006E
:1006400020FF07C0933071F48091EB0080628093AB
:10065000EB001092E9008091E800877F8093E8002A
:100660007CDD4DCE9091EB0090619093EB0021E00A
:1006700030E001C0220F8A95EAF72093EA00109239
:10068000EA008091EB008860E2CF811138CE0091C2
:10069000A5020F778091E3008078802B8093E300A0
:1006A0008091E800877F8093E80057DD8091E80023
:1006B00080FFFCCF8091E30080688093E30083E0BB
:1006C000011101C082E08BBD1ACEC09667CF2BB559
:1006D000222389F1253079F12091E80023FD2BC0F8
:1006E0002091E80022FD1AC02091E80020FF12C0EE
:1006F0002091F20030E0009719F02830310508F120
:1007000041E02830310509F040E02091E8002E77E3
:100710002093E8000097D9F64111D9CF8091E800E5
:1007200082FD09C08BB5882331F0853021F080919E
:10073000E80083FFF3CF8091E8008B778093E80097
:10074000DECD41914093F10001972F5F3F4FD3CF12
:100750008AE290E036CF292F33272230310509F481
:100760004FC02330310551F182E190E0E2EBF0E03F
:100770002130310509F0C3CD2091E800277F209377
:10078000E8002091A9023091AA028217930708F489
:100790009C0140E02115310509F037C0411135C0F9
:1007A0008091E80082FDC7CF8BB5882321F2853088
:1007B00011F28091E80083FFF3CFBDCF81110BC010
:1007C000EEE1F1E0E4918E2F90E0EEE1F1E00097B0
:1007D00009F495CDD1CF813041F4EAEEF0E0E49117
:1007E0008E2F90E0EAEEF0E0F2CF823009F087CD74
:1007F000E4ECF0E0E4918E2F90E0E4ECF0E0E7CF61
:100800008EE390E0E4E7F0E0B7CF8BB5882309F4FE
:1008100092CF853009F48FCF8091E80083FD8BCF94
:100820008091E80082FDBCCF8091E80080FFB2CFCC
:100830008091F20090E02115310519F08830910582
:1008400050F041E0089709F040E08091E8008E7791
:100850008093E8009FCF44914093F100319621505E
:1008600031090196E8CF803809F049CD8091E80040
:10087000877F8093E8008091A2028093F100C5CE2B
:1008800081113DCD0091A502023008F038CD809154
:10089000E800877F8093E8000093A2025EDC0023DB
:1008A00009F184E08BBDE2E9F2E08BE0DF011D920B
:1008B0008A95E9F782E08093860280938B0283E039
:1008C0008093900283E892E098DC882309F417CDA6
:1008D00088E892E092DC882309F411CD8DE892E05B
:1008E0008CDC0DCD8091E30087FDDBCF81E0DACF9A
:1008F0001F920F920FB60F9211242F933F934F9395
:100900005F936F937F938F939F93AF93BF93EF9377
:10091000FF938091E10080FF15C08091E20080FF8D
:1009200011C08091E2008E7F8093E2008091E2000E
:1009300080618093E2008091D80080628093D8002B
:1009400019BC1BBC8091E10084FF25C08091E200AE
:1009500084FF21C084E089BD86E089BD09B400FE22
:10096000FDCF8091D8008F7D8093D8008091E100E9
:100970008F7E8093E1008091E2008F7E8093E20081
:100980008091E20081608093E2008091A20288233E
:10099000B9F184E08BBD8091E10083FF20C080919C
:1009A000E20083FF1CC08091E100877F8093E1001B
:1009B00082E08BBD1092A2028091E1008E7F809335
:1009C000E1008091E2008E7F8093E2008091E2005E
:1009D00080618093E20042E060E080E0DBDBFF9139
:1009E000EF91BF91AF919F918F917F916F915F91A7
:1009F0004F913F912F910F900FBE0F901F90189520
:100A00008091E30087FD02C081E0C4CF83E0C2CFC4
:100A10002F01EEB3F2E031903092CE00EEBBF798AA
:100A2000F2012EB23090A00223101895E8E9E0936D
:100A3000C900F20118953090CE002F01EAB5F1E01F
:100A40003192EABDF201189584B7877F84BF0FB653
:100A5000F894A8958091600088618093600010925E
:100A600060000FBE80E890E00FB6F89480936100BC
:100A7000909361000FBE809163008E7F809363002E
:100A800081E080939E021092E2001092E10080913A
:100A9000D8008F778093D8008091D80080688093A9
:100AA000D8008091D8008F7D8093D80084E089BDE4
:100AB00086E089BD09B400FEFDCF1BBC1092A202E6
:100AC0001092A10242E060E080E064DB8091E100EE
:100AD0008E7F8093E1008091E20081608093E2004C
:100AE0008091E20088608093E2008091E0008E7F38
:100AF0008093E00084E085BD8AB1886B8AB95F9AF3
:100B00005A9A5D9A5C9A7894D8EB13E001E09FDBE7
:100B1000C0E0F12C8BB5843019F05D9A5C9AF7CF68
:100B20008093E9008091E80090E082FF09C09091F5
:100B3000F200911105C08091E8008B778093E80066
:100B40008091A0022EB3821B80958F779923B9F0F4
:100B50008917A8F0F2E0E091A0028091F100819362
:100B6000EF779150D1F78091E8008B778093E80080
:100B7000E093A002D093C9005C98C3E002C08F3715
:100B8000D9F78AB590919F02891BF9F0A89902C004
:100B90008F33C0F01093E9009091E80090FF12C0ED
:100BA0008F3308F08FE3E0919F02F1E091919093F1
:100BB000F1008150D1F78091E8008E778093E800B2
:100BC000E0939F025D9883E0F82EA89B0CC005BBC4
:100BD000FF2021F0FA94F11001C05D9ACC2319F0A6
:100BE000C15009F45C9A33DB95CFA1E21A2EAA1BFF
:100BF000BB1BFD010DC0AA1FBB1FEE1FFF1FA217CD
:100C0000B307E407F50720F0A21BB30BE40BF50BC9
:100C1000661F771F881F991F1A9469F76095709552
:100C2000809590959B01AC01BD01CF010895F8948A
:020C3000FFCFF4
:100C3200008340000001042000000182080000013E
:0C0C4200000000000000000000000000A6
:1070000039C0000098C0000096C0000094C0000085
:1070100092C0000090C000008EC000008CC0000034
:107020008AC0000088C0000086C00000A6C500001D
:1070300082C0000080C000007EC000007CC0000054
:107040007AC0000078C00000F3C1000074C00000E6
:1070500072C0000070C000006EC000006CC0000074
:107060006AC0000068C0000066C0000064C0000084
:1070700062C0000011241FBECFEFD4E0DEBFCDBF41
:1070800083E090E07CD480FD12C004B601FE0AC00B
:1070900081E02091C5013091C60122343C4D19F0A8
:1070A00080E001C081E094B79D7F94BF11C004B619
:1070B00003FE0AC081E02091C5013091C60122344F
:1070C0003C4D19F080E001C080E094B7977F94BFF9
:1070D00030E020E0F901459154918823B9F04F3F09
:1070E0005F4FA1F084B7877F84BF0FB6F894A8954F
:1070F00080916000886180936000109260000FBEF4
:107100001092C6011092C501F901099511E0A0E0A5
:10711000B1E0ECE5FEE702C005900D92A83AB10798
:10712000D9F721E0A8EAB1E001C01D92A53CB20761
:10713000E1F72FD191C664CF815080F09091F20099
:1071400091110DC09091E8009B7F9093E800909181
:10715000E80092FDF1CF9EB39111F9CF089590917F
:10716000F100EACFE0EBF1E0358124819381828167
:107170009093AA018093AB01C9019093A8018093D9
:10718000A9010895CF92DF92EF92FF921F93CF93C0
:10719000DF9300D01F92CDB7DEB78091B001909100
:1071A000BA01992309F43FC0843021F58091B101DF
:1071B000811123C08091B2018F3FF9F48091B10118
:1071C000833009F09BC081E08093B9018091B201C6
:1071D000E091B601F091B701309709F474C08130A5
:1071E000B9F49091B5018091B4019093AD01809371
:1071F000AE010EC0853009F49CC08AE08093000186
:1072000083E08093B8018091EB0080628093EB0073
:107210000F900F900F90DF91CF911F91FF90EF9003
:10722000DF90CF900895843049F260F48130E1F02E
:10723000833071F78091B101982F9D7F49F592DFDE
:1072400089E023C0853009F474C0863009F7809145
:10725000B1018330E9F68091B2018111D9CF8091DB
:10726000B3018093AC01D4CF1091B101123080F6FC
:1072700079DF111109C06091AA017091AB012091D1
:10728000AC01822F90E008D385E080930001C0CF4D
:10729000813009F0BDCFF0E0E0E084918F3F69F0EC
:1072A0001092AC01F093AB01E093AA018AE08093C5
:1072B000000185E08093B801ABCF3196E11520E75E
:1072C000F20759F7A5CF811111C082E49CED90938C
:1072D000C6018093C50188E19CE00FB6F894A8959B
:1072E000809360000FBE9093600092CF859194913F
:1072F000019609F08DCF109201018ACF811188CFBC
:107300008091B2018F3F09F083CFC12CD12C76013F
:10731000C701B601C1D280E8C80ED11CE11CF11C26
:10732000C11420E7D206E104F10491F71092BA01EA
:107330006FCF8091020190910301A0910401898394
:107340009A83AB83E091B2018091B101811109C0B0
:10735000E33080F4EC0FFD2FF11D81818093AF01AC
:1073600057CF813009F054CFE13379F040F488E50C
:10737000E033A1F38AE08093000188E09BCFE03600
:1073800031F08AE8E13651F3F5CF8EE1E7CF85E9B8
:10739000E5CF84B7877F84BF0FB6F894A895809116
:1073A0006000886180936000109260000FBE80E8EA
:1073B00090E00FB6F89480936100909361000FBE47
:1073C000C1E0C5BF82E085BFC9D38AB180638AB9F5
:1073D0008BB180638BB9C0936F0083E08093810091
:1073E0008BB180638F7D8BB978948091010181117D
:1073F0001DC08091B901811119C08FE99FE00197EB
:10740000F1F700C0000061D38AB18F7C8AB98BB1DB
:1074100080638BB910926F001092810081E085BF6C
:1074200015BEE091AD01F091AE010995F3D4DDCF29
:107430001F920F920FB60F9211248F9380E389B998
:107440008F910F900FBE0F901F9018955F926F92C3
:107450007F928F929F92AF92BF92CF92DF92EF92E4
:10746000FF920F931F93CF93DF938091BD018F778E
:107470008132A9F480E389B98091C3019091C4015C
:107480009093B7018093B6018091BE01833009F4D7
:107490009BC1A8F4813019F1823009F408C1DF9151
:1074A000CF911F910F91FF90EF90DF90CF90BF9001
:1074B000AF909F908F907F906F905F9008958530F0
:1074C00009F4A8C108F49EC1863049F78091E8000C
:1074D000877F8093E80082E08093000125C080913F
:1074E000E800877F8093E8008091B901882319F034
:1074F00049DE1092B9018091B6019091B7010097D1
:1075000039F580910001853051F48091B601909158
:10751000B701892B09F041C082E08093000180917E
:10752000E8008B7F8093E800DF91CF911F910F914E
:10753000FF90EF90DF90CF90BF90AF909F908F9093
:107540007F906F905F90A4C22EB3222309F4A7CF3F
:107550002091E80022FFF8CF2091F1002093B001A4
:1075600001979093B7018093B601E1EBF1E0809130
:10757000F200882381F08091F10081938091B6011F
:107580009091B70101979093B7018093B60121E0E4
:10759000E63BF20761F7F6DDB4CF8AE1CDDD00917D
:1075A000AA011091AB01802F8F71C6DDC091A80197
:1075B000D091A9012196C01BD10B8091B1018111FD
:1075C00066C0D695C79568018091AC01E82EF12C74
:1075D0007D2C682E5F2C10E0209759F48091A80133
:1075E0009091A9019093AB018093AA0180E1A4DD61
:1075F00096CF8091F200882321F121974091F100EC
:107600005091F100C701B601A7D11F5F4601570194
:1076100082E0880E911CA11CB11C7501640110341C
:10762000E9F4602F772D862D952D66D12097A1F254
:10763000C501B40131D110E0082D792C6A2C5B2CE6
:10764000CBCF8091E8008B7F8093E8008091E800A9
:1076500082FDD3CF8EB38111F9CF21CF209709F0CE
:10766000BBCFDFCF8091F2008823A1F021976091FA
:10767000F1008091AA019091AB01DCD38091AA0125
:107680009091AB0101969093AB018093AA01209752
:1076900049F7ACCF8091E8008B7F8093E800809120
:1076A000E80082FDE3CF8EB38111F9CFF8CE80914F
:1076B000E800877F8093E8008091E80080FF16C093
:1076C000809100018930C9F08A30A1F48091B10124
:1076D000813081F49091AA018091AB019093F100E7
:1076E0008093F1008091E8008E7F1CCF8EB38111D2
:1076F000E3CFD5CE8091AF01F3CF2091AA01309195
:10770000AB01C091A801D091A9012196C21BD30B56
:107710008091B101811131C0D695C795C9012091E1
:10772000AC01A22FB0E0219760F48091A801909164
:10773000A9019093AB018093AA0182E0809300019C
:10774000D1CF2091F200203259F0FC0125913491E3
:107750002093F1003093F1000296A11DB11DE3CFFB
:107760002091E8002E7F2093E8002091E80020FD82
:10777000ECCF2EB32111F9CF92CE8230F1F62097C3
:10778000E1F28091F200803291F08091AA01909113
:10779000AB0148D38093F1008091AA019091AB0195
:1077A00001969093AB018093AA012197E8CF809135
:1077B000E8008E7F8093E8008091E80080FDE5CFAF
:1077C0008EB38111F9CF6BCE8091E800877F8093D3
:1077D000E8008091E80080FF11C08091B80180939B
:1077E000F1001092F1001092F1001092F1008091DE
:1077F00000018093F1001092F10074CF8EB38111DB
:10780000E8CF4DCE8091E800877F8093E80010920A
:10781000B8018ACE8091E800877F8093E80080914C
:10782000E80080FF03C0809100015ACF8EB3811120
:10783000F6CF35CE292F30E02230310571F02330DC
:10784000310581F02130310511F582E190E026E922
:1078500031E0FA013183208308958BE190E02BE73A
:1078600031E0F7CF882349F0813061F0823079F43C
:1078700084E390E025E031E0ECCF84E090E027E77E
:1078800031E0E7CF8AE390E02BE331E0E2CF90E014
:1078900080E030E020E0DDCF0F931F93611520E7FB
:1078A00072078105910530F541E08B019C010F774E
:1078B000112722273327012B022B032B09F040E04D
:1078C000242F20FF14C02FB7F89407B600FCFDCF7B
:1078D000F999FECF33E0FB0130935700E89507B6E6
:1078E00000FCFDCF91E190935700E8952FBF1F91C9
:1078F0000F91089520E0E5CF0F931F93611520E7C6
:1079000072078105910530F541E08B019C010F77ED
:10791000112722273327012B022B032B09F040E0EC
:10792000242F20FF14C02FB7F89407B600FCFDCF1A
:10793000F999FECF35E0FB0130935700E89507B683
:1079400000FCFDCF91E190935700E8952FBF1F9168
:107950000F91089520E0E5CF07B600FCFDCFF9991F
:10796000FECF21E0FB010A0120935700E895112486
:10797000089521E2FC01209357008491089529E0A5
:10798000FC01209357008491089589E0E1E0F0E044
:1079900080935700849108959FB7F89407B600FC30
:1079A000FDCFF999FECF809529E0E1E0F0E0082EC7
:1079B00020935700E8959FBF0895FC018091C30173
:1079C0009091C40186179707A0F06115710529F4FD
:1079D0009091E8009E7F9093E80090E0611571051A
:1079E00051F4911108C08091E80082FF31C080E01D
:1079F0000895BC01F2CF8EB38823A9F18530A9F197
:107A00008091E80083FD2DC08091E80082FDEBCFDE
:107A10008091E80080FFE2CF2091F20030E0611514
:107A2000710519F02032310558F091E0203231050E
:107A300009F090E02091E8002E7F2093E800CECF5F
:107A400081918093F100615071092F5F3F4FE7CF23
:107A50008EB3882341F0853041F08091E80083FFA8
:107A6000C2CF81E0089582E0089583E00895EBEEAF
:107A7000F0E0808181608083EDEEF0E01082609321
:107A8000EC0040838091EE00881F8827881F0895AE
:107A90008091BD0187FF11C08091E80082FF06C080
:107AA0008091E8008B7F8093E80003C08EB3811142
:107AB000F3CF08958EB38823E1F38091E80080FF2F
:107AC000F9CF8091E8008E7FEECF51D053D0E0EE19
:107AD000F0E0808181608083E8EDF0E080818F7745
:107AE000808319BCE3E6F0E080818160808310929E
:107AF000BC0108953CD03ED08091D8008F77809310
:107B0000D8008091D80080688093D8008091D800F8
:107B10008F7D8093D80084E089BD86E089BD09B45B
:107B200000FEFDCF1EBA1092BB0142E260E080E091
:107B30009EDF8091E1008E7F8093E1008091E200E2
:107B400081608093E2008091E20088608093E2008F
:107B50008091E0008E7F8093E0000895E3E6F0E0FE
:107B600080818E7F808381E08093BC01C3CF10929F
:107B7000E20008951092E10008951F920F920FB64F
:107B80000F9211242F933F934F935F936F937F93A3
:107B90008F939F93AF93BF93EF93FF938091E100F7
:107BA00080FF16C08091E20080FF12C08091E20049
:107BB0008E7F8093E2008091E20080618093E200FA
:107BC0008091D80080628093D80019BC1EBA21D160
:107BD0008091E10084FF26C08091E20084FF22C0F2
:107BE00084E089BD86E089BD09B400FEFDCF8091A7
:107BF000D8008F7D8093D8008091E1008F7E8093A4
:107C0000E1008091E2008F7E8093E2008091E200AB
:107C100081608093E2008091BB018823C9F184E0F8
:107C20008EBBF7D08091E10083FF21C08091E200FC
:107C300083FF1DC08091E100877F8093E10082E097
:107C40008EBB1092BB018091E1008E7F8093E1009A
:107C50008091E2008E7F8093E2008091E20080615B
:107C60008093E20042E260E080E001DFD2D0FF9149
:107C7000EF91BF91AF919F918F917F916F915F91A4
:107C80004F913F912F910F900FBE0F901F9018951D
:107C90008091E30087FD02C081E0C2CF83E0C0CFC6
:107CA0001F93CF93DF9300D0CDB7DEB7EDEBF1E0BC
:107CB00085EC91E02091F10021938E179F07D1F779
:107CC000C5DB8091E80083FF0DC08091BD019091DC
:107CD000BE01963009F466C0C8F4992389F1953045
:107CE00009F441C08091E80083FF0AC08091E80058
:107CF000877F8093E8008091EB0080628093EB00A7
:107D00000F900F90DF91CF911F910895983009F453
:107D10006BC0993039F78111E5CF9091BF01923056
:107D200008F78091E800877F8093E8009093BB017B
:107D3000AFDE8091BB01882309F463C084E066C094
:107D40008D7F803879F68091E800877F8093E80006
:107D50001092F1001092F1008091E8008E7F8093E4
:107D6000E80096DEBFCF8111BDCF1091BF011F7714
:107D70008091E3008078812B8093E3008091E8007C
:107D8000877F8093E80084DE8091E80080FFFCCF4D
:107D90008091E30080688093E30082E0111183E02A
:107DA0008EBBA0CF8058823008F09CCF6091C1017B
:107DB0007091C201AE014F5F5F4F8091BF01909102
:107DC000C00138DDBC01892B09F48CCF9091E8000B
:107DD000977F9093E80089819A81EFDD8091E80098
:107DE0008B7F8093E8007ECF803809F07BCF809135
:107DF000E800877F8093E8008091BB018093F100C9
:107E0000ABCF8091E30087FD99CF81E08EBB01D09D
:107E100069CF08958EB3882321F08091E80083FD17
:107E20003FCF0895F999FECF92BD81BDF89A992769
:107E300080B50895262FF999FECF92BD81BDF89A9D
:107E4000019700B4021639F01FBA20BD0FB6F8949E
:0C7E5000FA9AF99A0FBE0895F894FFCF3B
:107E5C00020120DCFB34034F0072006900670069EB
:107E6C00006E0061006C0020005000720075007301
:107E7C0000610020006900330020004D004B0033EE
:107E8C0000200044004600550000003A03500072E8
:107E9C0000750073006100200052006500730065DE
:107EAC0000610072006300680020002800700072FE
:107EBC0000750073006100330064002E0063006FD6
:107ECC00006D00290000000403090409021B0001D5
:107EDC00010080320904000000FE010200092103A8
:107EEC000000000C10011201100100000020EB0337
:087EFC00F02F0000010200015B
:107FA0007BCCAACCD9CCE5CCEACCEFCCF5CC0895EF
:087FB000089508950895089555
:107FE000DFCFDFCFDFCFDFCFDFCFDFCFDFCFDFCF21
:087FF000DFCFDFCFDFCFDFCFD1
:087FF8000070000010DFFBDC4B
:040000030000700089
:00000001FF
