:1000000090C00000A9C00000A7C00000A5C000006B
:10001000A3C00000A1C000009FC000009DC0000060
:100020009BC0000099C0000097C0000061C40000A0
:1000300093C0000091C000008FC000008DC0000080
:100040008BC0000089C0000087C0000085C0000090
:1000500083C0000081C000007FC00000ECC400002D
:10006000D7C4000079C0000077C0000075C0000050
:1000700073C0000009023E00020100C03209040002
:1000800000010202010005240010010424020605FB
:1000900024060001070582030800FF09040100028D
:1000A0000A00000007050402200001070583024042
:1000B000000112011001020000084123100000019C
:1000C0000102DC0124034100720064007500690034
:1000D0006E006F0020004D00650067006100200089
:1000E000320035003600300000003203410072005B
:1000F0006400750069006E006F0020002800770022
:10010000770077002E0061007200640075006900BE
:100110006E006F002E0063006300290000000403DE
:10012000090411241FBECFEFD4E0DEBFCDBF12E023
:10013000A2E8B2E0E2E3FCE002C005900D92AE3925
:10014000B107D9F722E0AEE9B2E001C01D92AB3AA7
:10015000B207E1F779D46BC553CF8091A30287FF33
:1001600011C08091E80082FF06C08091E8008B7783
:100170008093E80003C08BB58111F3CF08958BB550
:100180008823E1F38091E80080FFF9CF8091E800B7
:100190008E77EECF982F953020F08093E90081E0A4
:1001A00008959093E900242F762F50E0981731F0AE
:1001B0007091EC002091ED005091F00021FD02C003
:1001C0009F5FE9CF3091EB003E7F3093EB003091A1
:1001D000ED003D7F3093ED003091EB0031603093C6
:1001E000EB007093EC002093ED005093F000209111
:1001F000EE0027FDE5CF80E00895FC012081222359
:1002000011F19481A181B2816381822F8F70853039
:10021000E0F442E0923008F046E0E8E0F0E090E000
:10022000EA17FB0760F09295907F492B6295660F65
:10023000660F607C221F2227221F622BABCF9F5F9D
:10024000EE0FFF1FEDCF81E0089580E00895CF927B
:10025000DF92EF92FF920F931F93CF93DF93CDB76F
:10026000DEB7AA970FB6F894DEBF0FBECDBF8BB531
:10027000882309F455C01091E9001F708091EC00AB
:1002800080FF5DC080E8182B1092E9008091E800A3
:1002900083FF43C0E3EAF2E08BEA92E02091F100B1
:1002A00021938E179F07D1F78091E80083FF12C03A
:1002B000209182028091A7029091A8022817190626
:1002C00049F48091A402813209F449C0D0F580320A
:1002D00009F481C08091E80083FF11C08091A302DE
:1002E0009091A402953009F4D0C108F025C1913055
:1002F00009F48FC108F469C1933009F48AC180916F
:10030000E80083FF0AC08091E800877F8093E800BF
:100310008091EB0080628093EB001F701093E900E6
:10032000AA960FB6F894DEBF0FBECDBFDF91CF9176
:100330001F910F91FF90EF90DF90CF90089580E094
:10034000A2CF823209F4DFC0833221F68091A3026A
:10035000813209F0BFCF8091E800877F38C080915B
:10036000A302813A09F0B6CF8091E800877F80939D
:10037000E8008091E80080FFFCCF80919602909188
:100380009702A0919802B09199028093F100492FB1
:100390005A2F6B2F77274093F100AD0166277727FF
:1003A0004093F1008B2F9927AA27BB278093F10058
:1003B00080919A028093F10080919B028093F100DA
:1003C00080919C028093F1008091E8008E77809369
:1003D000E800C3DE7FCF8091A302813209F07ACF9B
:1003E0008091E800877F8093E8008091E80082FF99
:1003F00078C03091F1002091F1009091F10080914E
:10040000F100309396022093970290939802809384
:1004100099028091F10080939A028091F10080937B
:100420009B028091F10080939C028091E8008B7781
:100430008093E80092DE5B9A1092C9001092C80087
:100440001092CA001EBA1092A00210929F021ABC0B
:10045000C0909602D0909702E0909802F090990296
:10046000C114D104E104F104D1F180919B0200E3B5
:10047000813021F000E0823009F400E280919A029C
:10048000823009F4086080919C02873071F18830D5
:1004900071F1863009F40260C701B601969587951F
:1004A0007795679560587B47814E9F4FA7019601CE
:1004B0009CD32150310920FD04C0211580E138076B
:1004C000C0F03695279580E03093CD002093CC0086
:1004D0000093CA008093C80088E98093C9005B98A4
:1004E000F9CE8BB5811181CFF5CE0460D5CF0660F2
:1004F000D3CF82E0C114A1EEDA06E104F10421F7C2
:1005000020E130E0E0CF8091A302813209F0E2CE19
:100510008091E800877F8093E8001FDE8091A5022C
:100520009091A602809392029093930280FF02C062
:100530005F98D0CE5F9ACECE983009F494C19930AE
:1005400009F49EC1963009F0DACE8058823008F066
:10055000D6CE8091A5029091A6028C3DB3E09B0778
:1005600009F0F9C083E08A838AE289834FB7F8945F
:10057000DE01139620E03EE051E2E32FF0E05093DD
:100580005700E49120FF03C0E295EF703F5FEF70EA
:100590008E2F90E0EA3008F498C0C7968D939D9313
:1005A0002F5F243151F74FBF8091E800877F809300
:1005B000E8008091A9029091AA028A32910508F080
:1005C000C7C040E0FE013196A5C0803899F082385E
:1005D00009F095CE8091A7028F70853008F08FCEFC
:1005E0008093E9008091EB0085FB882780F91092C9
:1005F000E90002C08091A1029091E800977F90935A
:10060000E8008093F1001092F1008091E8008E776D
:1006100025C0282F2D7F09F072CE823009F06FCED1
:100620008091A502811115C08091A7028F702FEFD4
:10063000280F243008F063CE8093E9002091EB006E
:1006400020FF07C0933071F48091EB0080628093AB
:10065000EB001092E9008091E800877F8093E8002A
:100660007CDD4DCE9091EB0090619093EB0021E00A
:1006700030E001C0220F8A95EAF72093EA00109239
:10068000EA008091EB008860E2CF811138CE0091C2
:10069000A5020F778091E3008078802B8093E300A0
:1006A0008091E800877F8093E80057DD8091E80023
:1006B00080FFFCCF8091E30080688093E30083E0BB
:1006C000011101C082E08BBD1ACEC09667CF2BB559
:1006D000222389F1253079F12091E80023FD2BC0F8
:1006E0002091E80022FD1AC02091E80020FF12C0EE
:1006F0002091F20030E0009719F02830310508F120
:1007000041E02830310509F040E02091E8002E77E3
:100710002093E8000097D9F64111D9CF8091E800E5
:1007200082FD09C08BB5882331F0853021F080919E
:10073000E80083FFF3CF8091E8008B778093E80097
:10074000DECD41914093F10001972F5F3F4FD3CF12
:100750008AE290E036CF292F33272230310509F481
:100760004FC02330310551F182E190E0E2EBF0E03F
:100770002130310509F0C3CD2091E800277F209377
:10078000E8002091A9023091AA028217930708F489
:100790009C0140E02115310509F037C0411135C0F9
:1007A0008091E80082FDC7CF8BB5882321F2853088
:1007B00011F28091E80083FFF3CFBDCF81110BC010
:1007C000EEE1F1E0E4918E2F90E0EEE1F1E00097B0
:1007D00009F495CDD1CF813041F4EAEEF0E0E49117
:1007E0008E2F90E0EAEEF0E0F2CF823009F087CD74
:1007F000E4ECF0E0E4918E2F90E0E4ECF0E0E7CF61
:100800008EE390E0E4E7F0E0B7CF8BB5882309F4FE
:1008100092CF853009F48FCF8091E80083FD8BCF94
:100820008091E80082FDBCCF8091E80080FFB2CFCC
:100830008091F20090E02115310519F08830910582
:1008400050F041E0089709F040E08091E8008E7791
:100850008093E8009FCF44914093F100319621505E
:1008600031090196E8CF803809F049CD8091E80040
:10087000877F8093E8008091A2028093F100C5CE2B
:1008800081113DCD0091A502023008F038CD809154
:10089000E800877F8093E8000093A2025EDC0023DB
:1008A00009F184E08BBDE2E9F2E08BE0DF011D920B
:1008B0008A95E9F782E08093860280938B0283E039
:1008C0008093900283E892E098DC882309F417CDA6
:1008D00088E892E092DC882309F411CD8DE892E05B
:1008E0008CDC0DCD8091E30087FDDBCF81E0DACF9A
:1008F0001F920F920FB60F9211242F933F934F9395
:100900005F936F937F938F939F93AF93BF93EF9377
:10091000FF938091E10080FF15C08091E20080FF8D
:1009200011C08091E2008E7F8093E2008091E2000E
:1009300080618093E2008091D80080628093D8002B
:1009400019BC1BBC8091E10084FF25C08091E200AE
:1009500084FF21C084E089BD86E089BD09B400FE22
:10096000FDCF8091D8008F7D8093D8008091E100E9
:100970008F7E8093E1008091E2008F7E8093E20081
:100980008091E20081608093E2008091A20288233E
:10099000B9F184E08BBD8091E10083FF20C080919C
:1009A000E20083FF1CC08091E100877F8093E1001B
:1009B00082E08BBD1092A2028091E1008E7F809335
:1009C000E1008091E2008E7F8093E2008091E2005E
:1009D00080618093E20042E060E080E0DBDBFF9139
:1009E000EF91BF91AF919F918F917F916F915F91A7
:1009F0004F913F912F910F900FBE0F901F90189520
:100A00008091E30087FD02C081E0C4CF83E0C2CFC4
:100A10002F01EEB3F2E031903092CE00EEBBF798AA
:100A2000F2012EB23090A00223101895E8E9E0936D
:100A3000C900F20118953090CE002F01EAB5F1E01F
:100A40003192EABDF201189584B7877F84BF0FB653
:100A5000F894A8958091600088618093600010925E
:100A600060000FBE80E890E00FB6F89480936100BC
:100A7000909361000FBE809163008E7F809363002E
:100A800081E080939E021092E2001092E10080913A
:100A9000D8008F778093D8008091D80080688093A9
:100AA000D8008091D8008F7D8093D80084E089BDE4
:100AB00086E089BD09B400FEFDCF1BBC1092A202E6
:100AC0001092A10242E060E080E064DB8091E100EE
:100AD0008E7F8093E1008091E20081608093E2004C
:100AE0008091E20088608093E2008091E0008E7F38
:100AF0008093E00084E085BD8AB1886B8AB95F9AF3
:100B00005A9A5D9A5C9A7894D8EB13E001E09FDBE7
:100B1000C0E0F12C8BB5843019F05D9A5C9AF7CF68
:100B20008093E9008091E80090E082FF09C09091F5
:100B3000F200911105C08091E8008B778093E80066
:100B40008091A0022EB3821B80958F779923B9F0F4
:100B50008917A8F0F2E0E091A0028091F100819362
:100B6000EF779150D1F78091E8008B778093E80080
:100B7000E093A002D093C9005C98C3E002C08F3715
:100B8000D9F78AB590919F02891BF9F0A89902C004
:100B90008F33C0F01093E9009091E80090FF12C0ED
:100BA0008F3308F08FE3E0919F02F1E091919093F1
:100BB000F1008150D1F78091E8008E778093E800B2
:100BC000E0939F025D9883E0F82EA89B0CC005BBC4
:100BD000FF2021F0FA94F11001C05D9ACC2319F0A6
:100BE000C15009F45C9A33DB95CFA1E21A2EAA1BFF
:100BF000BB1BFD010DC0AA1FBB1FEE1FFF1FA217CD
:100C0000B307E407F50720F0A21BB30BE40BF50BC9
:100C1000661F771F881F991F1A9469F76095709552
:100C2000809590959B01AC01BD01CF010895F8948A
:020C3000FFCFF4
:100C3200008340000001042000000182080000013E
:0C0C4200000000000000000000000000A6
